{
  "contractName": "Election",
  "abi": [
    {
      "inputs": [],
      "payable": false,
      "stateMutability": "nonpayable",
      "type": "constructor"
    },
    {
      "anonymous": false,
      "inputs": [
        {
          "indexed": true,
          "internalType": "uint256",
          "name": "_candidateId",
          "type": "uint256"
        }
      ],
      "name": "votedEvent",
      "type": "event"
    },
    {
      "constant": true,
      "inputs": [
        {
          "internalType": "uint256",
          "name": "",
          "type": "uint256"
        }
      ],
      "name": "candidates",
      "outputs": [
        {
          "internalType": "uint256",
          "name": "id",
          "type": "uint256"
        },
        {
          "internalType": "string",
          "name": "name",
          "type": "string"
        },
        {
          "internalType": "uint256",
          "name": "space",
          "type": "uint256"
        },
        {
          "internalType": "bool",
          "name": "matched",
          "type": "bool"
        }
      ],
      "payable": false,
      "stateMutability": "view",
      "type": "function"
    },
    {
      "constant": true,
      "inputs": [],
      "name": "candidatesCount",
      "outputs": [
        {
          "internalType": "uint256",
          "name": "",
          "type": "uint256"
        }
      ],
      "payable": false,
      "stateMutability": "view",
      "type": "function"
    },
    {
      "constant": false,
      "inputs": [
        {
          "internalType": "uint256",
          "name": "_candidateId",
          "type": "uint256"
        }
      ],
      "name": "vote",
      "outputs": [],
      "payable": false,
      "stateMutability": "nonpayable",
      "type": "function"
    }
  ],
  "bytecode": "0x608060405234801561001057600080fd5b506100576040518060400160405280600a81526020017f50726f766964657220310000000000000000000000000000000000000000000081525060056100e860201b60201c565b61009d6040518060400160405280600a81526020017f50726f766964657220320000000000000000000000000000000000000000000081525060026100e860201b60201c565b6100e36040518060400160405280600a81526020017f50726f7669646572203300000000000000000000000000000000000000000000815250600a6100e860201b60201c565b610231565b6001600081548092919060010191905055506040518060800160405280600154815260200183815260200182815260200160001515815250600080600154815260200190815260200160002060008201518160000155602082015181600101908051906020019061015a92919061018c565b506040820151816002015560608201518160030160006101000a81548160ff0219169083151502179055509050505050565b828054600181600116156101000203166002900490600052602060002090601f016020900481019282601f106101cd57805160ff19168380011785556101fb565b828001600101855582156101fb579182015b828111156101fa5782518255916020019190600101906101df565b5b509050610208919061020c565b5090565b61022e91905b8082111561022a576000816000905550600101610212565b5090565b90565b6102db806102406000396000f3fe608060405234801561001057600080fd5b50600436106100415760003560e01c80630121b93f146100465780632d35a8a2146100745780633477ee2e14610092575b600080fd5b6100726004803603602081101561005c57600080fd5b8101908080359060200190929190505050610152565b005b61007c6101cb565b6040518082815260200191505060405180910390f35b6100be600480360360208110156100a857600080fd5b81019080803590602001909291905050506101d1565b604051808581526020018060200184815260200183151515158152602001828103825285818151815260200191508051906020019080838360005b838110156101145780820151818401526020810190506100f9565b50505050905090810190601f1680156101415780820380516001836020036101000a031916815260200191505b509550505050505060405180910390f35b60008111801561016457506001548111155b61016d57600080fd5b600160008083815260200190815260200160002060030160006101000a81548160ff021916908315150217905550807ffff3c900d938d21d0990d786e819f29b8d05c1ef587b462b939609625b684b1660405160405180910390a250565b60015481565b6000602052806000526040600020600091509050806000015490806001018054600181600116156101000203166002900480601f0160208091040260200160405190810160405280929190818152602001828054600181600116156101000203166002900480156102835780601f1061025857610100808354040283529160200191610283565b820191906000526020600020905b81548152906001019060200180831161026657829003601f168201915b5050505050908060020154908060030160009054906101000a900460ff1690508456fea265627a7a72315820be57ec6bf29e27211c4dc9ffeca7b8560333d0b9dd45f22c5c75f59c2fded22f64736f6c634300050c0032",
  "source": "pragma solidity 0.5.12;\n\ncontract Election {\n    // Model a Candidate\n    struct Candidate {\n        uint id;\n        string name;\n        uint space;\n        bool matched;\n    }\n\n    // Store accounts that have voted\n    //mapping(address => bool) public voters;\n\n    // Store Candidates\n    // Fetch Candidate\n    mapping(uint => Candidate) public candidates;\n    // Store Candidates Count\n    uint public candidatesCount;\n\n    // voted event\n    event votedEvent (\n        uint indexed _candidateId\n    );\n\n    constructor () public {\n        addCandidate(\"Provider 1\", 5);\n        addCandidate(\"Provider 2\", 2);\n        addCandidate(\"Provider 3\", 10);\n    }\n\n    function addCandidate (string memory _name, uint _space) private {\n        candidatesCount ++;\n        candidates[candidatesCount] = Candidate(candidatesCount, _name, _space, false);\n    }\n\n    function vote (uint _candidateId) public {\n        // require that they haven't voted before\n        //require(!voters[msg.sender]);\n\n        // require a valid candidate\n        require(_candidateId > 0 && _candidateId <= candidatesCount);\n\n        // record that voter has voted\n        //voters[msg.sender] = true;\n\n        // update candidate vote Count\n        candidates[_candidateId].matched = true;\n\n        // trigger voted event\n        emit votedEvent(_candidateId);\n    }\n}\n",
  "sourcePath": "/Users/shivenmian/dshare/contracts/Election.sol",
  "compiler": {
    "name": "solc",
    "version": "0.5.12+commit.7709ece9.Emscripten.clang"
  },
  "schemaVersion": "3.0.19",
  "updatedAt": "2019-12-05T23:03:47.516Z",
  "networkType": "ethereum",
  "devdoc": {
    "methods": {}
  },
  "userdoc": {
    "methods": {}
  }
}