{
  "contractName": "Election",
  "abi": [
    {
      "inputs": [],
      "payable": false,
      "stateMutability": "nonpayable",
      "type": "constructor"
    },
    {
      "anonymous": false,
      "inputs": [
        {
          "indexed": true,
          "internalType": "uint256",
          "name": "_candidateId",
          "type": "uint256"
        }
      ],
      "name": "votedEvent",
      "type": "event"
    },
    {
      "constant": true,
      "inputs": [
        {
          "internalType": "uint256",
          "name": "",
          "type": "uint256"
        }
      ],
      "name": "candidates",
      "outputs": [
        {
          "internalType": "uint256",
          "name": "id",
          "type": "uint256"
        },
        {
          "internalType": "string",
          "name": "name",
          "type": "string"
        },
        {
          "internalType": "uint256",
          "name": "space",
          "type": "uint256"
        },
        {
          "internalType": "bool",
          "name": "matched",
          "type": "bool"
        },
        {
          "internalType": "string",
          "name": "ipAddress",
          "type": "string"
        }
      ],
      "payable": false,
      "stateMutability": "view",
      "type": "function"
    },
    {
      "constant": true,
      "inputs": [],
      "name": "candidatesCount",
      "outputs": [
        {
          "internalType": "uint256",
          "name": "",
          "type": "uint256"
        }
      ],
      "payable": false,
      "stateMutability": "view",
      "type": "function"
    },
    {
      "constant": false,
      "inputs": [
        {
          "internalType": "uint256",
          "name": "_candidateId",
          "type": "uint256"
        }
      ],
      "name": "vote",
      "outputs": [],
      "payable": false,
      "stateMutability": "nonpayable",
      "type": "function"
    }
  ],
  "bytecode": "0x608060405234801561001057600080fd5b5061008d6040518060400160405280600a81526020017f50726f766964657220310000000000000000000000000000000000000000000081525060056040518060400160405280600d81526020017f31332e3435362e3139392e35340000000000000000000000000000000000000081525061018a60201b60201c565b6101096040518060400160405280600a81526020017f50726f766964657220320000000000000000000000000000000000000000000081525060026040518060400160405280600d81526020017f31332e3435362e3139392e35350000000000000000000000000000000000000081525061018a60201b60201c565b6101856040518060400160405280600a81526020017f50726f7669646572203300000000000000000000000000000000000000000000815250600a6040518060400160405280600d81526020017f31332e3435362e3139392e35360000000000000000000000000000000000000081525061018a60201b60201c565b6102f7565b6001600081548092919060010191905055506040518060a001604052806001548152602001848152602001838152602001600015158152602001828152506000806001548152602001908152602001600020600082015181600001556020820151816001019080519060200190610202929190610252565b506040820151816002015560608201518160030160006101000a81548160ff0219169083151502179055506080820151816004019080519060200190610249929190610252565b50905050505050565b828054600181600116156101000203166002900490600052602060002090601f016020900481019282601f1061029357805160ff19168380011785556102c1565b828001600101855582156102c1579182015b828111156102c05782518255916020019190600101906102a5565b5b5090506102ce91906102d2565b5090565b6102f491905b808211156102f05760008160009055506001016102d8565b5090565b90565b6103e5806103066000396000f3fe608060405234801561001057600080fd5b50600436106100415760003560e01c80630121b93f146100465780632d35a8a2146100745780633477ee2e14610092575b600080fd5b6100726004803603602081101561005c57600080fd5b81019080803590602001909291905050506101be565b005b61007c610237565b6040518082815260200191505060405180910390f35b6100be600480360360208110156100a857600080fd5b810190808035906020019092919050505061023d565b60405180868152602001806020018581526020018415151515815260200180602001838103835287818151815260200191508051906020019080838360005b838110156101185780820151818401526020810190506100fd565b50505050905090810190601f1680156101455780820380516001836020036101000a031916815260200191505b50838103825284818151815260200191508051906020019080838360005b8381101561017e578082015181840152602081019050610163565b50505050905090810190601f1680156101ab5780820380516001836020036101000a031916815260200191505b5097505050505050505060405180910390f35b6000811180156101d057506001548111155b6101d957600080fd5b600160008083815260200190815260200160002060030160006101000a81548160ff021916908315150217905550807ffff3c900d938d21d0990d786e819f29b8d05c1ef587b462b939609625b684b1660405160405180910390a250565b60015481565b6000602052806000526040600020600091509050806000015490806001018054600181600116156101000203166002900480601f0160208091040260200160405190810160405280929190818152602001828054600181600116156101000203166002900480156102ef5780601f106102c4576101008083540402835291602001916102ef565b820191906000526020600020905b8154815290600101906020018083116102d257829003601f168201915b5050505050908060020154908060030160009054906101000a900460ff1690806004018054600181600116156101000203166002900480601f0160208091040260200160405190810160405280929190818152602001828054600181600116156101000203166002900480156103a65780601f1061037b576101008083540402835291602001916103a6565b820191906000526020600020905b81548152906001019060200180831161038957829003601f168201915b505050505090508556fea265627a7a72315820e5ba9e270317d3257e4497442f91146a97ccc5ddae01af7d3ad015c213ed947864736f6c634300050c0032",
  "source": "pragma solidity 0.5.12;\n\ncontract Election {\n    // Model a Candidate\n    struct Candidate {\n        uint id;\n        string name;\n        uint space;\n        bool matched;\n        string ipAddress;\n    }\n\n    // Store accounts that have voted\n    //mapping(address => bool) public voters;\n\n    // Store Candidates\n    // Fetch Candidate\n    mapping(uint => Candidate) public candidates;\n    // Store Candidates Count\n    uint public candidatesCount;\n\n    // voted event\n    event votedEvent (\n        uint indexed _candidateId\n    );\n\n    constructor () public {\n        addCandidate(\"Provider 1\", 5, \"13.456.199.54\");\n        addCandidate(\"Provider 2\", 2, \"13.456.199.55\");\n        addCandidate(\"Provider 3\", 10, \"13.456.199.56\");\n    }\n\n    function addCandidate (string memory _name, uint _space, string memory _ipAddress) private {\n        candidatesCount ++;\n        candidates[candidatesCount] = Candidate(candidatesCount, _name, _space, false, _ipAddress);\n    }\n\n    function vote (uint _candidateId) public {\n        // require that they haven't voted before\n        //require(!voters[msg.sender]);\n\n        // require a valid candidate\n        require(_candidateId > 0 && _candidateId <= candidatesCount);\n\n        // record that voter has voted\n        //voters[msg.sender] = true;\n\n        // update candidate vote Count\n        candidates[_candidateId].matched = true;\n\n        // trigger voted event\n        emit votedEvent(_candidateId);\n    }\n}\n",
  "sourcePath": "/Users/shivenmian/dshare/contracts/Election.sol",
  "compiler": {
    "name": "solc",
    "version": "0.5.12+commit.7709ece9.Emscripten.clang"
  },
  "schemaVersion": "3.0.19",
  "updatedAt": "2019-12-09T05:26:11.311Z",
  "networkType": "ethereum",
  "devdoc": {
    "methods": {}
  },
  "userdoc": {
    "methods": {}
  }
}